{
  "_format": "hh-sol-artifact-1",
  "contractName": "Stamp",
  "sourceName": "contracts/Stamp.sol",
  "abi": [
    {
      "inputs": [
        {
          "internalType": "int256",
          "name": "errorCode",
          "type": "int256"
        }
      ],
      "name": "ActorError",
      "type": "error"
    },
    {
      "inputs": [],
      "name": "ActorNotFound",
      "type": "error"
    },
    {
      "inputs": [],
      "name": "FailToCallActor",
      "type": "error"
    },
    {
      "inputs": [
        {
          "internalType": "uint64",
          "name": "",
          "type": "uint64"
        }
      ],
      "name": "InvalidCodec",
      "type": "error"
    },
    {
      "inputs": [],
      "name": "InvalidResponseLength",
      "type": "error"
    },
    {
      "inputs": [],
      "name": "NegativeValueNotAllowed",
      "type": "error"
    },
    {
      "inputs": [
        {
          "internalType": "uint256",
          "name": "balance",
          "type": "uint256"
        },
        {
          "internalType": "uint256",
          "name": "value",
          "type": "uint256"
        }
      ],
      "name": "NotEnoughBalance",
      "type": "error"
    },
    {
      "anonymous": false,
      "inputs": [
        {
          "indexed": false,
          "internalType": "string",
          "name": "newValue",
          "type": "string"
        }
      ],
      "name": "ContentChanged",
      "type": "event"
    },
    {
      "anonymous": false,
      "inputs": [
        {
          "indexed": true,
          "internalType": "address",
          "name": "previousOwner",
          "type": "address"
        },
        {
          "indexed": true,
          "internalType": "address",
          "name": "newOwner",
          "type": "address"
        }
      ],
      "name": "OwnershipTransferred",
      "type": "event"
    },
    {
      "inputs": [
        {
          "internalType": "uint256",
          "name": "value",
          "type": "uint256"
        }
      ],
      "name": "addBalance",
      "outputs": [],
      "stateMutability": "nonpayable",
      "type": "function"
    },
    {
      "inputs": [],
      "name": "owner",
      "outputs": [
        {
          "internalType": "address",
          "name": "",
          "type": "address"
        }
      ],
      "stateMutability": "view",
      "type": "function"
    },
    {
      "inputs": [],
      "name": "renounceOwnership",
      "outputs": [],
      "stateMutability": "nonpayable",
      "type": "function"
    },
    {
      "inputs": [],
      "name": "retrieve",
      "outputs": [
        {
          "internalType": "string",
          "name": "",
          "type": "string"
        }
      ],
      "stateMutability": "view",
      "type": "function"
    },
    {
      "inputs": [
        {
          "internalType": "string",
          "name": "newValue",
          "type": "string"
        }
      ],
      "name": "stampWithContentUri",
      "outputs": [],
      "stateMutability": "nonpayable",
      "type": "function"
    },
    {
      "inputs": [
        {
          "internalType": "address",
          "name": "newOwner",
          "type": "address"
        }
      ],
      "name": "transferOwnership",
      "outputs": [],
      "stateMutability": "nonpayable",
      "type": "function"
    },
    {
      "inputs": [
        {
          "internalType": "address",
          "name": "client",
          "type": "address"
        },
        {
          "internalType": "uint256",
          "name": "value",
          "type": "uint256"
        }
      ],
      "name": "withdrawBalance",
      "outputs": [
        {
          "internalType": "uint256",
          "name": "",
          "type": "uint256"
        }
      ],
      "stateMutability": "nonpayable",
      "type": "function"
    }
  ],
  "bytecode": "0x608060405234801561001057600080fd5b5061001a3361001f565b61006f565b600080546001600160a01b038381166001600160a01b0319831681178455604051919092169283917f8be0079c531659141344cd1fd0a4f28419497f9722a3daafe3b4186f6b6457e09190a35050565b6126178061007e6000396000f3fe608060405234801561001057600080fd5b506004361061007d5760003560e01c8063715018a61161005b578063715018a6146100d55780638da5cb5b146100dd578063d91921ed146100f6578063f2fde38b1461010957600080fd5b80630cf20cc9146100825780632e64cec1146100ab57806349eb020e146100c0575b600080fd5b610095610090366004611a2f565b61011c565b6040516100a29190611a74565b60405180910390f35b6100b361019d565b6040516100a29190611ade565b6100d36100ce366004611bee565b61022f565b005b6100d361027e565b6000546001600160a01b03166040516100a29190611c32565b6100d3610104366004611c40565b610292565b6100d3610117366004611c61565b6102af565b60006101266102e6565b6000604051806040016040528061013c86610310565b815260200161014a85610359565b905290506000610159826103a5565b9050600080610167836103f7565b91509150806101915760405162461bcd60e51b815260040161018890611c82565b60405180910390fd5b50925050505b92915050565b6060600180546101ac90611d1f565b80601f01602080910402602001604051908101604052809291908181526020018280546101d890611d1f565b80156102255780601f106101fa57610100808354040283529160200191610225565b820191906000526020600020905b81548152906001019060200180831161020857829003601f168201915b5050505050905090565b6102376102e6565b60016102438282611df1565b507f982917a4d9902c770007e90477f2a16b0981468b70a8fe314a90f622a25bb3d2816040516102739190611ade565b60405180910390a150565b6102866102e6565b610290600061048e565b565b61029a6102e6565b6102ac6102a630610310565b826104f8565b50565b6102b76102e6565b6001600160a01b0381166102dd5760405162461bcd60e51b815260040161018890611f2c565b6102ac8161048e565b6000546001600160a01b031633146102905760405162461bcd60e51b815260040161018890611f71565b610324604051602081016040526060815290565b6040518060200160405280836040516020016103409190611fa9565b6040516020818303038152906040528152509050919050565b61037460405160408082019052606081526000602082015290565b6000610381836000610544565b90506040516040808201905280825181526020018260200151151590529392505050565b6103c060405160408082019052606081526000602082015290565b60006103cb8361059c565b905060006103e460056387ed0a64605185600080610633565b90506103ef81610742565b949350505050565b600080826020015115610436576040517f83041cea00000000000000000000000000000000000000000000000000000000815260040160405180910390fd5b60006104456000196000610544565b90506000610458855186602001516107d6565b90506104648183610808565b1561047757506000946001945092505050565b805161048290611fee565b95600095509350505050565b600080546001600160a01b038381167fffffffffffffffffffffffff0000000000000000000000000000000000000000831681179093551690817f8be0079c531659141344cd1fd0a4f28419497f9722a3daafe3b4186f6b6457e060405160405180910390a35050565b600061050383610832565b9050600061051c6005633105f1a6605185876000610633565b905080511561053e57604051630e74990760e01b815260040160405180910390fd5b50505050565b61056a604051806060016040528060608152602001600015158152602001600081525090565b6105958360405160200161057e9190612039565b604051602081830303815290604052836000610864565b9392505050565b60606000806105ae8460200151610939565b90506105ba6002610a58565b6105c49083612064565b91506105d1845151610aa6565b6105db9083612064565b91506105e681610aa6565b6105f09083612064565b915060006105fd83610abe565b905061060a816002610ade565b6106178551518290610aee565b6106218183610aee565b61062a81610b0c565b95945050505050565b606061065373fe0000000000000000000000000000000000000584610b39565b60008073fe0000000000000000000000000000000000000588868661067957600061067c565b60015b8a8a8e604051602001610694969594939291906120a2565b6040516020818303038152906040526040516106b0919061212b565b600060405180830381855af49150503d80600081146106eb576040513d603f01601f191681016040523d815291503d6000602084013e6106f0565b606091505b50915091508161072c576040517f8a7db5bf00000000000000000000000000000000000000000000000000000000815260040160405180910390fd5b61073581610bb3565b9998505050505050505050565b61075d60405160408082019052606081526000602082015290565b60606000808451111561078c576107748482610cbf565b909250905060008251111561078c576103ef82610e34565b60405160408082019052806000604051818152601f19601f83011681016020016040529080156107c3576020820181803683370190505b5081526000602090910152949350505050565b6107fc604051806060016040528060608152602001600015158152602001600081525090565b61059583836000610864565b60008061081784846001610f9b565b9050806001146108285760006103ef565b6001949350505050565b606060006108408351610aa6565b9050600061084d82610abe565b905061085b84518290610aee565b6103ef81610b0c565b61088a604051806060016040528060608152602001600015158152602001600081525090565b602084018451600059601f831615600181146108b857601f84166020908103808601845283010192506108c2565b6020820192508382525b508282848660046101c2fa506020815101810160405280515b60208114610909576000602083015114600181146108f95750610909565b60208301925050601f19016108db565b81528452505050602081018390528115610923578161092d565b61092d81516110db565b60408201529392505050565b6060600082515161094b906001612064565b67ffffffffffffffff81111561096357610963611aef565b604051818152601f19601f830116810160200160405290801561098d576020820181803683370190505b509050826020015115156001146109a55760006109ab565b600160f81b5b816000815181106109be576109be612137565b60200101906001600160f81b031916908160001a905350600160005b845151811015610a4f57845181815181106109f7576109f7612137565b60200101516001600160f81b031916838381518110610a1857610a18612137565b60200101906001600160f81b031916908160001a90535081610a398161214d565b9250508080610a479061214d565b9150506109da565b50909392505050565b600060178211610a6a57506001919050565b60ff8211610a7a57506002919050565b61ffff8211610a8b57506003919050565b63ffffffff8211610a9e57506005919050565b506009919050565b60008151610ab48351610a58565b6101979190612064565b610ac66119bb565b610ad1815183611119565b5060006020820152919050565b610aea82600483611196565b5050565b610afb826002835161119d565b610b07818351906112c2565b505050565b6060816020015115610b305760405162461bcd60e51b81526004016101889061219b565b81515192915050565b4781811015610b785780826040517f8f0f42060000000000000000000000000000000000000000000000000000000081526004016101889291906121ab565b823f15158061053e576040517f64d954b000000000000000000000000000000000000000000000000000000000815260040160405180910390fd5b606060008080602085018551810190610bcc919061224c565b9194509250905067ffffffffffffffff8216610c0757805115610c0257604051630e74990760e01b815260040160405180910390fd5b610c85565b67ffffffffffffffff821660511480610c2a575067ffffffffffffffff82166071145b15610c51578051600003610c0257604051630e74990760e01b815260040160405180910390fd5b816040517ff1f6bced00000000000000000000000000000000000000000000000000000000815260040161018891906122b7565b82156103ef57826040517fd4bb66710000000000000000000000000000000000000000000000000000000081526004016101889190611a74565b60606000806000610cd086866112e9565b965090925067ffffffffffffffff16905060ff821660061480610cf6575060ff82166002145b610d125760405162461bcd60e51b81526004016101889061231f565b60051960ff831601610d4c57610d2886866112e9565b965090925067ffffffffffffffff16905060ff8216600214610d4c57610d4c61232f565b6000610d588287612064565b905060008267ffffffffffffffff811115610d7557610d75611aef565b604051818152601f19601f8301168101602001604052908015610d9f576020820181803683370190505b5090506000875b83811015610e1857898181518110610dc057610dc0612137565b60200101516001600160f81b031916838381518110610de157610de1612137565b60200101906001600160f81b031916908160001a90535081610e028161214d565b9250508080610e109061214d565b915050610da6565b5081610e24858a612064565b9650965050505050509250929050565b610e4f60405160408082019052606081526000602082015290565b8151600003610e8757604051806040016040528060405160408082019052600181526000602080830182905291835291015292915050565b600060018351610e979190612345565b67ffffffffffffffff811115610eaf57610eaf611aef565b604051818152601f19601f8301168101602001604052908015610ed9576020820181803683370190505b509050600083600081518110610ef157610ef1612137565b60200101516001600160f81b031916600160f81b03610f0e575060015b60015b8451811015610f8057848181518110610f2c57610f2c612137565b60200101516001600160f81b03191683610f47600184612345565b81518110610f5757610f57612137565b60200101906001600160f81b031916908160001a90535080610f788161214d565b915050610f11565b50604051604080820190529182521515602082015292915050565b6000600182156110145784602001518015610fb7575083602001515b15610fc55750600019611014565b8460200151158015610fdd5750836020015115156001145b15610fec576001915050610595565b84602001511515600114801561100457508360200151155b1561101457600019915050610595565b83604001518560400151111561102b579050610595565b84604001518460400151111561104f5761104781600019612358565b915050610595565b600080808080895151905060208a510194506020895101935060005b818110156110ca57808601519350808501519250828411156110965786975050505050505050610595565b838311156110b8576110aa87600019612358565b975050505050505050610595565b6110c3602082612064565b905061106b565b5060009a9950505050505050505050565b60006110e682611466565b156110f357506000919050565b600060208301519050611105816114af565b915060086020845103028201915050919050565b61113460405160408082019052606081526000602082015290565b61113f6020836123a6565b156111675761114f6020836123a6565b61115a906020612345565b6111649083612064565b91505b60208301829052604051808452600081528281016020018181101561118b57600080fd5b604052509192915050565b610b078383835b60178167ffffffffffffffff16116111c45761053e60e0600584901b1682178451906116b3565b60ff8167ffffffffffffffff1611611207576111ed6018611fe0600585901b16178451906116b3565b5061053e67ffffffffffffffff8216600185519190611726565b61ffff8167ffffffffffffffff161161124b576112316019611fe0600585901b16178451906116b3565b5061053e67ffffffffffffffff8216600285519190611726565b63ffffffff8167ffffffffffffffff161161129157611277601a611fe0600585901b16178451906116b3565b5061053e67ffffffffffffffff8216600485519190611726565b6112a8601b611fe0600585901b16178451906116b3565b5061053e67ffffffffffffffff8216600885519190611726565b6112dd60405160408082019052606081526000602082015290565b610595838384516117b5565b6000806000806112f9868661188f565b9050611306600186612064565b94506007600582901c16601f8216601c81106113345760405162461bcd60e51b815260040161018890612414565b60188160ff1610156113525790945060ff16925084915061145f9050565b8060ff166018036113af576000611369898961188f565b9050611376600189612064565b975060188160ff16101561139c5760405162461bcd60e51b815260040161018890612458565b9195505060ff16925084915061145f9050565b8060ff166019036113e95760006113c689896118dd565b90506113d3600289612064565b97509195505061ffff16925084915061145f9050565b8060ff16601a03611425576000611400898961191e565b905061140d600489612064565b97509195505063ffffffff16925084915061145f9050565b8060ff16601b146114385761143861232f565b6000611444898961195f565b9050611451600889612064565b975091955090935085925050505b9250925092565b60008060208301815b84518110156114a45781519250821561148d57506000949350505050565b60209182019161149d9082612064565b905061146f565b506001949350505050565b60008115600181146116a85770010000000000000000000000000000000068010000000000000000640100000000620100006101006010600460026000198b019081041790810417908104179081041790810417908104179081041790810417600101926040517ff8f9cbfae6cc78fbefe7cdc3a1793dfcf4f0e8bbd8cec470b6a28a7a5a3e1efd81527ff5ecf1b3e9debc68e1d9cfabc5997135bfb7a7a3938b7b606b5b4b3f2f1f0ffe60208201527ff6e4ed9ff2d6b458eadcdf97bd91692de2d4da8fd2d0ac50c6ae9a827252361660408201527fc8c0b887b0a8a4489c948c7f847c6125746c645c544c444038302820181008ff60608201527ff7cae577eec2a03cf3bad76fb589591debb2dd67e0aa9834bea6925f6a4a2e0e60808201527fe39ed557db96902cd38ed14fad815115c786af479b7e8324736353433727170760a08201527fc976c13bb96e881cb166a933a55e490d9d56952b8d4e801485467d236242260660c08201527f753a6d1b65325d0c552a4d1345224105391a310b29122104190a11030902010060e082015261010081016040527e818283848586878898a8b8c8d8e8f929395969799a9b9d9e9faaeb6bedeeff600160f81b8082880204818160ff0385015104600160ff1b8611610100020196506000198501851661169e576001870196505b50505050506116ad565b600091505b50919050565b6116ce60405160408082019052606081526000602082015290565b6000835151905060006116e2826001612064565b90508460200151821061170357611703856116fe836002612468565b6119a0565b8451602083820101858153815183111561171b578282525b509495945050505050565b61174160405160408082019052606081526000602082015290565b6000845151905060006117548285612064565b9050856020015181111561177157611771866116fe836002612468565b600060016117818661010061258e565b61178b9190612345565b9050865182810187831982511617815281518411156117a8578382525b5096979650505050505050565b6117d060405160408082019052606081526000602082015290565b82518211156117de57600080fd5b6000845151905060006117f18483612064565b9050856020015181111561180e5761180e866116fe836002612468565b60008087518051856020830101935080851115611829578482525b505050602086015b602086106118695780518252611848602083612064565b9150611855602082612064565b9050611862602087612345565b9550611831565b60001960208790036101000a018019825116818451161790925250959695505050505050565b600061189c826001612064565b835110156118bc5760405162461bcd60e51b8152600401610188906125d1565b8282815181106118ce576118ce612137565b602001015160f81c9392505050565b60006118ea826002612064565b8351101561190a5760405162461bcd60e51b8152600401610188906125d1565b60008260200184015160f01c949350505050565b600061192b826004612064565b8351101561194b5760405162461bcd60e51b8152600401610188906125d1565b60008260200184015160e01c949350505050565b600061196c826008612064565b8351101561198c5760405162461bcd60e51b8152600401610188906125d1565b60008260200184015160c01c949350505050565b6000825190506119b08383611119565b5061053e83826112c2565b60405180604001604052806119e160405160408082019052606081526000602082015290565b8152602001600081525090565b60006001600160a01b038216610197565b611a08816119ee565b81146102ac57600080fd5b8035610197816119ff565b80611a08565b803561019781611a1e565b60008060408385031215611a4557611a45600080fd5b6000611a518585611a13565b9250506020611a6285828601611a24565b9150509250929050565b805b82525050565b602081016101978284611a6c565b60005b83811015611a9d578082015183820152602001611a85565b50506000910152565b6000611ab6826000815192915050565b808452602084019350611acd818560208601611a82565b601f01601f19169290920192915050565b602080825281016105958184611aa6565b634e487b7160e01b600052604160045260246000fd5b601f19601f830116810181811067ffffffffffffffff82111715611b2b57611b2b611aef565b6040525050565b6000611b416000604051905090565b9050611b4d8282611b05565b919050565b600067ffffffffffffffff821115611b6c57611b6c611aef565b601f19601f83011660200192915050565b82818337506000910152565b6000611b9c611b9784611b52565b611b32565b905082815260208101848484011115611bb757611bb7600080fd5b611bc2848285611b7d565b509392505050565b600082601f830112611bde57611bde600080fd5b81356103ef848260208601611b89565b600060208284031215611c0357611c03600080fd5b813567ffffffffffffffff811115611c1d57611c1d600080fd5b6103ef84828501611bca565b611a6e816119ee565b602081016101978284611c29565b600060208284031215611c5557611c55600080fd5b60006103ef8484611a24565b600060208284031215611c7657611c76600080fd5b60006103ef8484611a13565b6020808252810161019781604881527f50726f626c656d7320636f6e76657274696e672077697468647261772062616c60208201527f616e636520696e746f2042696720496e742c206d617920636175736520616e2060408201527f6f766572666c6f77000000000000000000000000000000000000000000000000606082015260800190565b634e487b7160e01b600052602260045260246000fd5b600281046001821680611d3357607f821691505b6020821081036116ad576116ad611d09565b6000610197611d518381565b90565b611d5d83611d45565b81546008840282811b60001990911b908116901990911617825550505050565b6000610b07818484611d54565b81811015610aea57611d9d600082611d7d565b600101611d8a565b601f821115610b0757611dc381600081815281906020902092915050565b6020601f85010481016020851015611dd85750805b611dea6020601f860104830182611d8a565b5050505050565b611dff826000815192915050565b67ffffffffffffffff811115611e1757611e17611aef565b611e218254611d1f565b611e2c828285611da5565b6020601f831160018114611e615760008415611e49578287015190505b600019600886021c1981166002860217865550611ec7565b601f198416611e7b86600081815281906020902092915050565b60005b82811015611e9e5784890151825560209485019460019092019101611e7e565b86831015611eba5784890151600019601f89166008021c191682555b6001600288020188555050505b505050505050565b602681526000602082017f4f776e61626c653a206e6577206f776e657220697320746865207a65726f206181527f6464726573730000000000000000000000000000000000000000000000000000602082015291505b5060400190565b6020808252810161019781611ecf565b60208082527f4f776e61626c653a2063616c6c6572206973206e6f7420746865206f776e6572910190815260005b5060200190565b6020808252810161019781611f3c565b60006101978260601b90565b600061019782611f81565b611a6e611fa4826119ee565b611f8d565b7f040a00000000000000000000000000000000000000000000000000000000000081526002016000611fdb8284611f98565b50601401919050565b6000610197825190565b6000611ffe826000815192915050565b6020830161200b81611fe4565b9250602082101561202c57612027600019836020036008021b90565b831692505b5050919050565b80611a6e565b60006120458284612033565b50602001919050565b634e487b7160e01b600052601160045260246000fd5b808201808211156101975761019761204e565b67ffffffffffffffff8116611a6e565b600067ffffffffffffffff8216610197565b611a6e81612087565b60c081016120b08289612077565b6120bd6020830188611a6c565b6120ca6040830187612077565b6120d76060830186612077565b81810360808301526120e98185611aa6565b90506120f860a0830184612099565b979650505050505050565b6000612113826000815192915050565b612121818560208601611a82565b9290920192915050565b60006105958284612103565b634e487b7160e01b600052603260045260246000fd5b600060001982036121605761216061204e565b5060010190565b600c81526000602082017f496e76616c69642043424f52000000000000000000000000000000000000000081529150611f6a565b6020808252810161019781612167565b604081016121b98285611a6c565b6105956020830184611a6c565b60008151905061019781611a1e565b67ffffffffffffffff8116611a08565b600081519050610197816121d5565b6000612202611b9784611b52565b90508281526020810184848401111561221d5761221d600080fd5b611bc2848285611a82565b600082601f83011261223c5761223c600080fd5b81516103ef8482602086016121f4565b60008060006060848603121561226457612264600080fd5b600061227086866121c6565b9350506020612281868287016121e5565b925050604084015167ffffffffffffffff8111156122a1576122a1600080fd5b6122ad86828701612228565b9150509250925092565b602081016101978284612077565b602e81526000602082017f696e76616c6964206d616a20286578706563746564204d616a546167206f722081527f4d616a42797465537472696e672900000000000000000000000000000000000060208201529150611f25565b60208082528101610197816122c5565b634e487b7160e01b600052600160045260246000fd5b818103818111156101975761019761204e565b8181028060008312600160ff1b851416156123755761237561204e565b82820584148315176123895761238961204e565b5092915050565b634e487b7160e01b600052601260045260246000fd5b6000826123b5576123b5612390565b500690565b602581526000602082017f63616e6e6f742068616e646c652068656164657273207769746820657874726181527f203e20323700000000000000000000000000000000000000000000000000000060208201529150611f25565b60208082528101610197816123ba565b600c81526000602082017f696e76616c69642063626f72000000000000000000000000000000000000000081529150611f6a565b6020808252810161019781612424565b8181028082158382048514176123895761238961204e565b80825b60018511156124bf5780860481111561249e5761249e61204e565b60018516156124ac57908102905b80026124b88560011c90565b9450612483565b94509492505050565b6000826124d757506001610595565b816124e457506000610595565b81600181146124fa576002811461250457612531565b6001915050610595565b60ff8411156125155761251561204e565b8360020a91508482111561252b5761252b61204e565b50610595565b5060208310610133831016604e8410600b8410161715612564575081810a8381111561255f5761255f61204e565b610595565b6125718484846001612480565b925090508184048111156125875761258761204e565b0292915050565b600061059560001984846124c8565b601481526000602082017f736c6963696e67206f7574206f662072616e676500000000000000000000000081529150611f6a565b602080825281016101978161259d56fea2646970667358221220654f068802d225f8c8965c4e3907281a93509c47b881ac2aae51061c3d2b34c364736f6c63430008110033",
  "linkReferences": {},
  "deployedLinkReferences": {}
}